:1040000000800020559900003D9900003D99000076
:1040100000000000000000000000000000000000A0
:104020000000000000000000000000003D990000BA
:1040300000000000000000003D990000A999000068
:104040003D9900003D9900003D9900003D99000018
:104050002D9500003D9900003D9900004199000018
:104060003D990000997500003D9900003D990000C0
:104070004D5400003D990000A97500001147000053
:104080003D9900003D990000ED4600003D9900007B
:10409000000000003D9900003D9900003D9900009E
:1040A0003D9900003D9900003D9900003D990000B8
:1040B0000000000010B5064C2378002B07D1054BFB
:1040C000002B02D0044800E000BF0123237010BD84
:1040D000340200200000000008FD0000044B10B571
:1040E000002B03D00349044800E000BF10BDC046C8
:1040F000000000003802002008FD0000704770B585
:10410000851D040002220121280003F09BF8207184
:10411000002802D0280002F0ADFF207970BD10B554
:10412000063003F063F8012010BD000030B50C002C
:104130000822835E0621425E1025415F85B003910F
:104140000E25415F02910C25415F01910A21415EDC
:1041500020000091024909F0C1FB200005B030BDEC
:10416000E3EF000030B50C000822835E0621425EBA
:104170001025415F85B003910E25415F02910C250A
:10418000415F01910A21415E20000091024909F03E
:10419000A5FB05B030BDC046D0EF000010B504004F
:1041A00005F0D8FC200010BD10B50400024905F050
:1041B00003FB200010BDC04607F0000010B50B68DF
:1041C00090B004009B6808006946984701002000F1
:1041D00005F0F2FA200010B010BD10B50B6890B0D9
:1041E00004009B680800694698470100200005F01C
:1041F000E3FA200010B010BD7047022270B5451DD3
:1042000004001100280002F0FDFE2071002802D0F9
:10421000280002F05DFE207970BD10B50400053065
:1042200002F090FEE060011C002406F057FE00281A
:1042300000D10124E0B210BD1FB50C000222C168FC
:1042400001A805F00FFB019A0449200009F046FB84
:1042500001A805F067FA200004B010BD50F000007E
:104260001FB50C000222C16801A805F0FBFA0199F4
:10427000200009F061FB01A805F054FA200004B009
:1042800010BD10B5040005F065FC200010BD000055
:1042900010B50400024905F08FFA200010BDC04699
:1042A00062F00000704710B537210400083002F0BA
:1042B00093FB0120207110BD70B50400002208346A
:1042C00005001100200002F031FC0021E86120000F
:1042D00002F0B2FC011C2862E869002406F0FEFD31
:1042E000002800D10124E0B270BD000070B50500C7
:1042F0000C0086B0C1690222684605F0B3FA009E40
:10430000296A022203A805F0ADFA039B3200064990
:10431000200009F0E3FA03A805F004FA684605F066
:1043200001FA200006B070BD9FF0000070B50500D6
:104330000C0086B0C1690222684605F093FA009E1F
:10434000296A022203A805F08DFA039B3200064970
:10435000200009F0C3FA03A805F0E4F9684605F067
:10436000E1F9200006B070BD98F0000010B504001F
:10437000024905F021FA200010BDC046BDF0000042
:1043800010B5040005F0E6FB200010BD002310B5B9
:104390000371064B0400083303600623083002F063
:1043A00007FB00232000E361236210BDC4F000007E
:1043B00000797047002070477047000010B5040076
:1043C0004179024801F024F9207110BD100C002041
:1043D00010B5040005F0BEFB200010BD10B50400B0
:1043E000024905F0E9F9200010BDC046F0F00000D8
:1043F000704770B5851D040002220121280002F0DB
:1044000007FD2071002802D0280002F06FFC2079FF
:1044100070BD10B5063002F083FC012010BD000015
:1044200013B50C000822835E0621425E0A21415E1C
:1044300020000091024909F051FA200016BDC04643
:1044400029F1000013B50C000822835E0621425EAC
:104450000A21415E20000091014909F03FFA16BD92
:1044600020F1000010B5040005F074FB200010BD21
:1044700010B50400024905F09FF9200010BDC046A8
:1044800038F100000120704700207047704700009D
:1044900010B5040086B0216A083002F035FF0E49DD
:1044A00003A805F089F90A22216A684605F0A3F9F4
:1044B000694603A805F00DFA0100084805F01EF949
:1044C000684605F02FF903A805F02CF90023012018
:1044D000237106B010BDC04674F1000058110020D1
:1044E00010B5040005F036FB200010BD10B5040027
:1044F000024905F061F9200010BDC04696F10000A8
:1045000013B5040001910548054905F001F92000A3
:1045100020220830029902F03DFF13BD58110020FF
:1045200089F10000012303717047037910B504007D
:10453000002B01D0836898470023237110BD70477A
:1045400010B503681B68984710BD012303717047BD
:1045500070B503790400002B0AD0060005000C3664
:104560000835AE4204D001CD03685B689847F8E790
:104570000023237170BD01230371704770B5037967
:104580000400002B0AD00600050014360835AE42A0
:1045900004D001CD03685B689847F8E700232371D6
:1045A00070BD00007FB50024114D124E60593100DE
:1045B00003689B689847002812D0615901A80B68CE
:1045C0009B6998470C4D0D493300019A280009F06A
:1045D00085F901A805F0A6F82900094805F098F822
:1045E0000434182CE0D1064805F080F87FBDC046A1
:1045F00004000020F8060020F804002022F2000049
:104600005811002070B5002486B0154EA0590379CA
:10461000002B20D103681B68984700281BD1114D3F
:104620001149280005F05EF8A15968460B689B699E
:104630009847694603A805F000F90C4903A805F05E
:1046400055F90100280005F059F803A805F06AF8AB
:10465000684605F067F80434182CD6D106B070BD52
:10466000040000205811002000F2000009F20000B0
:1046700030B58BB001A81723154A164901F05EF832
:1046800001A800F0AEFF002818D00024124B134DF3
:10469000E058290003681B699847002803D02900C7
:1046A00001A805F01FF80434182CEFD101A805F07B
:1046B0001DF801A800F088FF0BB030BD084C094977
:1046C000200005F00FF80849200005F021F8F3E775
:1046D00029F20000100C002004000020F804002043
:1046E0005811002000F2000032F2000010B5064B15
:1046F0009A7BD20606D51022997B0A439A73034B04
:104700001B68984710BDC046002C0042B004002032
:1047100010B50A4CE36ADB0304D58023E26A5B022E
:104720001343E362E36ADB0706D5054B1B68984732
:104730000123E26A1343E36210BDC0460020004239
:10474000B40400200222F0B505000E00446885B0D4
:10475000238893432380E37BDB09FCD123885A4AD7
:1047600013402380E37BDB09FCD12388574A1340A5
:104770002380E37BDB09FCD12388554A1340238047
:10478000E37BDB09FCD12388524A13402380E37B7F
:10479000DB09FCD12388504A13402380E37BDB09EB
:1047A000FCD123884D4A13402380E37BDB09FCD1F5
:1047B00023889BB22380E37BDB09FCD1484B9E42DC
:1047C00033D9E0232288DB00134323808023DB00DE
:1047D0006B61E77BFF09FCD1686906F0B5FB0390CC
:1047E000300006F0FBFB3F4905F070FF011C039809
:1047F00005F06CFF011C3C4805F068FF06F084FBE7
:10480000431EAB61208A228B80B2009392B23B00A0
:10481000390004F0A9FE80B22082AB699BB22383E9
:10482000E37BDB09FCD105B0F0BD304B304AF31817
:10483000934207D8C0232288DB00134323808023C0
:104840005B00C5E72B4B2C4AF318934206D8A023F4
:104850002288DB00134323804023B9E7274B284AF3
:10486000F318934206D880232288DB001343238069
:104870001023ADE7234B244AF318934206D8C023F4
:1048800022889B00134323800823A1E71F4B204A63
:10489000F318934206D8802322889B001343238079
:1048A000042395E71B4B1C4AF318934206D8802338
:1048B00022885B0013432380022389E723889BB26D
:1048C0002380012384E7C046FFF8FFFFFFF9FFFFC5
:1048D000FFFAFFFFFFFBFFFFFFFDFFFFFFFEFFFFF4
:1048E000E093040000247449001B374C7FC7FEFF8F
:1048F0005F5B0300DFB1FFFF5FEA0000EFD8FFFF5F
:104900000F27000077ECFFFF871300003BF6FFFF47
:10491000C309000017FCFFFFDB0500000222F8B509
:1049200005000E004468236893432360A3689B0737
:10493000FCD42368524A13402360A3689B07FCD42D
:104940002368504A13402360A3689B07FCD4236864
:104950004D4A13402360A3689B07FCD423684B4A4D
:1049600013402360A3689B07FCD42368484A134084
:104970002360A3689B07FCD42368464A1340236046
:10498000A3689B07FCD423682360A3689B07FCD41F
:10499000414B9E4227D9E0232268DB00134323606A
:1049A0008023DB006B61686906F0CEFA071C3000DB
:1049B00006F014FB394905F089FE011C381C05F08E
:1049C00085FE011C364805F081FE06F09DFA01388F
:1049D000A8612064A3681B06FCD4324B6364A368FF
:1049E000DB05FCD4F8BD304B304AF318934207D8AE
:1049F000C0232268DB001343236080235B00D1E7E0
:104A00002B4B2C4AF318934206D8A0232268DB00D4
:104A1000134323604023C5E7274B284AF3189342EA
:104A200006D880232268DB00134323601023B9E7F4
:104A3000234B244AF318934206D8C02322689B00D4
:104A4000134323600823ADE71F4B204AF31893421A
:104A500006D8802322689B00134323600423A1E728
:104A60001B4B1C4AF318934206D8802322685B0034
:104A700013432360022395E723682360012391E712
:104A8000FFF8FFFFFFF9FFFFFFFAFFFFFFFBFFFF4C
:104A9000FFFDFFFFFFFEFFFFE093040000247449C9
:104AA000001B374CFF0F00007FC7FEFF5F5B03005A
:104AB000DFB1FFFF5FEA0000EFD8FFFF0F27000024
:104AC00077ECFFFF871300003BF6FFFFC3090000F0
:104AD00017FCFFFFDB050000F7B5050004F072FFCF
:104AE0000024242701903E0066432422A8190021B7
:104AF00008F0C9F9019B01347351102CF3D19023B4
:104B000000229B00EA50F7BD90239B00C35802008F
:104B10000F2B0CDC002024210B004343D3185B68CF
:104B2000002B03D001301028F6D111387047012036
:104B30004042FBE7F0B585B002930AAB1B78050055
:104B4000039390239B00C35801911700002B01DAB7
:104B5000FFF7C2FF2800FFF7D7FF061E1BDB002F61
:104B600019D024244443019B2C192361029B6760C4
:104B7000A3606B461B7B23730B9B6361012323772D
:104B800004F020FF902220609200AB580133AB501C
:104B9000300005B0F0BD01267642F9E713B50024D8
:104BA000019401340094FFF7C5FF16BD70B50500F0
:104BB0000F2914D89026B6008359002B0FD0242239
:104BC000514344186368002B09D00021200008F0ED
:104BD0005AF904F0F7FE2060AB59013BAB5170BDB0
:104BE000F7B5060004F0EEFE00250700242400239C
:104BF0006C43341923626368002B1AD0236822693E
:104C0000FB1A934215D3206821692369381A00934F
:104C10002368019305F0A6FB009B5843019BC01835
:104C20002060237F002B04D06369002B20D1013347
:104C300023620135102DD9D1002414352B00634394
:104C4000F3181A6A002A0FD01A7B002A1FD05A685C
:104C5000986890472B006343F3181B6A022B03D11B
:104C600021003000FFF7A2FF0134102CE6D1F7BD80
:104C7000A26963699A42DCD201232362A3690133EA
:104C8000A361A26963699A42D3D30223D0E75B6828
:104C90009847DFE710B50248FFF7A2FF10BDC046F6
:104CA00050020020130010B54468621C0234A400B6
:104CB00042602350024A0068FFF770FF10BDC046F3
:104CC0004145000010B50024084B5A68A24207DD98
:104CD000A2009B189868013403685B689847F3E763
:104CE00003490448FFF70CFC10BDC04650090020E2
:104CF0000000A04098090020F0B50024474B474A27
:104D00001C71474B87B0901D136001F0D1FF454ED9
:104D100045493200414805F013FB16220221434861
:104D2000FFF734FB32004249404805F009FB414B94
:104D3000404A1C71404B501D136002F0A8F832002D
:104D40003E493C4805F0FCFA3D4B3D4A1C713D4B49
:104D5000901D136002F070F932003B49384805F0AD
:104D6000EFFA3A483A4B320003600B233949047199
:104D7000437105F0E5FA384F384B6D463C713848C1
:104D80003B6002F0A9FA052328003B6202F0A4FA76
:104D9000334B07CD07C306CD06C32A8831491A8095
:104DA0003800320005F0CCFA2F4B304A1C711A60E3
:104DB0001A4A2F489A601F4A2E49DA60204A047026
:104DC0001A612D4B2D4A1C711A60184A84609A6032
:104DD0002B4B3200436005F0B3FA90220121294B9E
:104DE00029489200494299500360446021004022C2
:104DF000083008F048F8254B254A26491A60996082
:104E00001C712549254B1A601C719960244B1A604E
:104E1000244A1C719A6007B0F0BDC04634090020D6
:104E200050F1000000000020F143000004090020C0
:104E3000A5420000E804002074F00000F9410000E1
:104E4000B80400202CF00000FD40000048090020BC
:104E5000FCF00000B943000098090020ACF100000C
:104E6000A00900208D440000D4040020E8F10000D7
:104E7000940400203F45000028090020F8F10000BC
:104E8000002C00425002002050090020C8090020D8
:104E9000D8F10000A545000071460000BC090020C3
:104EA000F808002005460000962170B589014D489C
:104EB00003F052F84C4800F0FFF8FFF7A3FB4B4C0F
:104EC0004B4B23612378002B54D14A4A4A4B1A801A
:104ED0004A4A5378DB09FCD10221626813888B436C
:104EE0001380626813889BB213806368DA7BD209EF
:104EF000FCD1198820320A431A806368DD7BED09F2
:104F0000FCD121692000FFF71DFC102263685D734E
:104F1000597B0A4380215A73394AC902116002221F
:104F200019880A431A806268D37BDB09FCD1354BB0
:104F3000354AA3601360FA21344C354A20004900F9
:104F4000FFF7B0FEFA212000324AC900FFF7AAFE9F
:104F5000FA212000304A8900FFF7A4FEFA21200040
:104F60002E4A8900FFF79EFE2D4A2E492000FFF7AA
:104F700099FE70BD012BDED12B4A1F4B1A801F4AB0
:104F80005378DB09FCD10221626813688B431360FC
:104F9000626893689B07FCD421692000FFF7BEFC80
:104FA0006368DA6BDA639A685206D20FFBD19A62B1
:104FB000996A01320A439A628022996A52020A432C
:104FC00080219A620E4A09021160022219680A437E
:104FD0001A60626893689B07FCD40A4B134AA3606B
:104FE000A8E7C04658110020D409002094040020EE
:104FF000102700001B400000020C0040000C004085
:1050000000E100E0954C0000B004002050090020B1
:10501000D404002028090020C8090020BC09002071
:10502000F8080020881300001A400000B404002093
:105030000020704710B503689C6B0123A04710BD8A
:105040008C2300229B00C154103BC3185A609A6005
:10505000DA6001238375704710B5036801211B6B6B
:10506000984710BDF8B505000E0017000024BC429B
:1050700008D02B68315D1B6828009847002801D0B4
:105080000134F4E72000F8BDFC30406A70477047F7
:105090008E239B00C15070478D239B00C1507047E9
:1050A0000300FC335A6A002A03D01B6AC018007E32
:1050B000704701204042FBE770B5060018250C49F7
:1050C000006902F059FD306902F09DFB2B000821B8
:1050D000307D084C4343E318595604F029FF08215A
:1050E000707D45436419615604F022FF70BDC046CF
:1050F000A086010064F3000070B504000D00006993
:1051000002F096FB2900206902F036FD206902F0CA
:105110007AFB70BD10B5006902F08AFB10BD00007B
:10512000F7B50193FA238026002504009B008360D5
:10513000134B760008330F0045602900009203608E
:105140003200183007F09FFE23002000FC3325308A
:10515000DD6132001D6229005D62FF3007F093FEC1
:1051600088239B00E3185D609D60DD606B461B78C3
:10517000276123756B461B79A57520006375FEBDFD
:105180004CF2000070B506001825006902F0CFFC53
:10519000306902F038FB2B000821307D064C434378
:1051A000E318595604F0C4FE0821707D4543641984
:1051B000615604F0BDFE70BD64F3000010B500221E
:1051C000FFF7E0FF10BD0300802210B5FC33DC6860
:1051D0005200944208D05A6881545A680132D2B2BF
:1051E0005A60DA680132DA6010BDF7B50400171EA4
:1051F000019302D100252800FEBD03000022FC33EC
:10520000DA611A625A620069013202F043FB061E3B
:10521000F0D0230020691833009302F0C8FB01008E
:105220000098FFF7D0FF01252069BD4214D002F09D
:105230009CFB00280FD0206902F00CFB02212069A2
:1052400002F012FB206902F0B2FB01000098FFF7A8
:10525000BAFF0135E8E70600206902F0F3FA019B86
:10526000002B06D0002E06D00321206902F0FCFAA4
:10527000C1E7002EBFD1013DBDE7002310B5827DFF
:105280009A420CD0882292008218D4688022520060
:10529000944204D02530FF30FFF795FF012318001A
:1052A00010BD0300FC33DA68002A09D09A68805CDC
:1052B0009A680132D2B29A60DA68013ADA607047CD
:1052C00001204042FBE700228C2370B59B008275D1
:1052D00004000E00C15C006902F0DCFA002806D16F
:1052E0000321206902F0C0FA0225280070BD88233E
:1052F0009B00E318DD68002D11D020002530FF3021
:105300002569FFF7CEFFC1B2280002F005FB002897
:10531000EDD10321206902F0A7FA0325E5E7002E6D
:10532000E3D00321206902F09FFADEE710B51830C0
:10533000FFF7B7FF10BD70B50400006902F00CFB69
:10534000002815D0206902F01EFB002811D020692A
:1053500002F080FA0321206902F086FA8E239B0076
:10536000E558002D35D10023FC34E36123626362EC
:1053700070BD206902F011FB002809D0206902F0FD
:1053800007FB002804D0206902F00CFB0028DED0C7
:10539000206902F002FB002821D1206902F0EEFA18
:1053A0000028E5D0206902F0FDFA002833D08823D8
:1053B0009B00E318DB68FF21002B05D0200025307F
:1053C000FF30FFF76EFFC1B2206902F0B7FAA07597
:1053D000CEE7236820001B699847A847C3E72069E8
:1053E00002F038FA2069032102F03EFA206902F047
:1053F000D9FA0028BCD0882300229B00E3185A6009
:105400009A60DA600123A3758D239B00E3589342D1
:10541000AED09847ACE72300FC335A6A802320695A
:105420005B009A4206D102F00DFA0321206902F0D6
:105430001BFA9DE702F0BBFA010020001830FFF7CD
:10544000C2FE206902F006FAEFE7000010B502483C
:10545000FFF771FF10BDC046D409002010B511231D
:10546000102202490248FFF75BFE10BD4C110020DC
:10547000D409002013B56B460268D971073354680C
:1054800019000122A04716BD10B5036A181E02D0EC
:105490001A689268904710BD10B5036A0400002B8B
:1054A00003D101230020636010BD0020586092B238
:1054B000206A00F063FF236A5B68002BF1D1F3E7F9
:1054C00010B5006A002802D0012100F08FFD10BD48
:1054D00013B56B46DC1D0122210000F0B5FC01284C
:1054E00001D1207816BD01204042FBE710B5006ACB
:1054F000002802D0FFF7ECFF10BD01204042FBE77F
:1055000070B500240500006AA04209D0FFF7E0FF53
:105510000400431C04D0286A0369591E00F036FDBC
:10552000200070BDF8B5FA2300259B0083600D4B69
:10553000040008334560036028200F00160007F0C0
:1055400051FC2062A8420AD02822390007F07FFCD3
:1055500020000C223100103008F0FDF925772000E2
:10556000F8BDC0469CF20000FA220023920082603F
:10557000034A436008320260036203747047C04606
:105580009CF20000036A002B01D0186970470120CB
:105590004042FBE7036A181E00D0D869704700003C
:1055A00070B50500006A00280BD02800FFF7F2FF55
:1055B00004002800FFF7E6FF024B201A984200D9AA
:1055C000180070BDFF7F000010B50400006A0028BD
:1055D00006D000F051FD206A07F00EFC0023236284
:1055E00010BD036A181E03D0587A431E9841C0B2FA
:1055F000704770B5012204000D0001F04FF9020060
:105600000120002A03D12900200001F047F970BDD4
:10561000030070B541331B7804000D00002B02D04D
:10562000383000F029FD2A000121200000F0B0FAF6
:10563000002801D1002070BD250010352100280070
:10564000FFF7D7FF0028F5D020002900383000F000
:10565000D1FB431E9841C0B2EDE700004B684360A8
:105660000A4B03600B7A03724B7A4372CB68C360B8
:105670000B6903614B6943610B7E0376CB69C361A0
:105680000B6A03624B6A43627047C046DCF200005B
:10569000F0B59DB00393002308AD029212AE264AE6
:1056A00007006B6073601031280008926B721292D1
:1056B000737200F09FFB029C2F21200008F02EF94E
:1056C000002830D023782F2B01D10134F4E7001BC0
:1056D000C0B2031C0C2800D90C23DBB21A00210035
:1056E00004A8019308F037F90023019904AA3000B7
:1056F000535400F0C1FC012304AA2900300000F03B
:105700009FFD002806D10C4B78603B607872380012
:105710001DB0F0BD019B2800E41800F0ADFC2B008B
:1057200035001E00C8E7029B2900E41A039B3800DD
:105730001C60FFF793FFEAE7DCF20000F0B514000D
:10574000A3B004AE0193070003AB3000FFF7A0FF46
:10575000039BE4182378002B09D1310018A8FFF728
:105760007DFF174A18A93800FFF7DCFE0BE0002385
:105770000EAD6B60134A6B72737A0E92002B05D1DB
:105780003800FFF7F1FE380023B0F0BD019B220086
:105790003100280000F054FD0028F1D0300000F066
:1057A0006BFC0623019A1A40062A03D1159928009A
:1057B00000F0ECFB290018A8FFF750FF2200D1E70A
:1057C000C0F20000DCF200000221084B0022196147
:1057D000190030310A7006495A719A719A721A7317
:1057E000DA63996341331A707047C046100C002089
:1057F000DCF2000000B5062904D91623002143710C
:10580000080000BD104B05291AD80800002204F03A
:105810009FFD03090F1113150C49196001211A711D
:105820005971EDE71A71012209485A711860E7E7CA
:105830000849F2E70849F0E70849EEE70849ECE7CC
:10584000084A1A600022E9E7780C002040787D01C0
:1058500000093D0080841E0040420F0020A1070087
:1058600090D0030048E80100034B044A1A6000226C
:105870001A7101325A717047780C002000093D00FE
:1058800010B50100014804F01AFC10BD18180020E2
:1058900010B5FF21014804F012FC10BD18180020BB
:1058A00070B50C0004F08EF80500FFF7F1FFFF283B
:1058B00006D004F087F8401BA042F6D3002070BD4C
:1058C0000120FCE710B50121007904F0EDFA054B49
:1058D0001A78002A04D0002203481A7004F066FCEB
:1058E00010BDC046740C00201818002010B5837934
:1058F0000400002B0DD023895A1C2281054A9342B3
:1059000002D8FFF7C5FFF6E72000FFF7DBFF002313
:10591000A37110BD0102000070B5040004F052F83C
:10592000962506006D00FFF7B3FF0300E072FF2825
:105930000BD104F047F8801BA842F4D90F232000B4
:105940006371FFF7BFFF002070BD0120FE2BFBD06D
:105950000D23F4E770B5050008001400FFF790FF71
:1059600080239B00E61820780134FFF789FFB442BA
:10597000F9D1FF20FFF784FFFF20FFF781FFFFF73A
:1059800087FF1F23E87203400120052B05D0112358
:1059900028006B71FFF796FF002070BD10B5084B13
:1059A00004001A78002A06D101321A70054B064805
:1059B00006CB04F07BFC2079002104F075FA10BDC1
:1059C000740C0020780C002018180020F8B5050091
:1059D0000E001700FFF78AFF2800FFF7DFFF962170
:1059E00028004900FFF75CFF40203043FFF748FFE5
:1059F00018243800E040083CC0B2FFF741FF230004
:105A00000833F6D19520002E03D06A30082E00D13D
:105A10007838FFF735FF0024FFF73AFF43B2E8720A
:105A2000002B04DAFF2C02D00134E4B2F4E7F8BD15
:105A3000F8B516001D009A18802304009B009A42B6
:105A400016DC8379002B05D003688B4202D10389D1
:105A5000B3421AD9237B2160032B00D049020A00EC
:105A600020001121FFF7B2FF071E06D00323637148
:105A70002000FFF727FF002028E02000FFF74CFF61
:105A80000028F5D001232781A3712389B34208D3CD
:105A9000069E7719B7420AD0FFF7FAFE307001363A
:105AA000F8E7FFF7F5FE238901332381EDE723892A
:105AB000ED18A37AADB22581002B03D0044B012051
:105AC0009D4203D92000FFF711FF0120F8BDC04619
:105AD000FF01000013B504000120002B04D004983E
:105AE00000902000FFF7A4FF16BD802307B59B00A0
:105AF00000920022FFF79CFF0EBDF8B51D000400C8
:105B000016001223002924D0037B032B00D0490266
:105B10000A0020001821FFF759FF0423071E18D19F
:105B20003200FE212000FFF715FF002812D0002DC3
:105B300019D0962120008900FFF7B2FE1523002816
:105B400007D03A000D212000FFF740FF002806D0C3
:105B5000142363712000FFF7B5FE002007E0FFF774
:105B600097FE0028F4D12000FFF7ACFE0120F8BD1D
:105B700070B50500FFF712FFFFF78AFE040028004A
:105B8000FF3CFFF79FFE601E8441E0B270BD000045
:105B9000F7B50025027105738572857145710400A2
:105BA000019103F00FFF01210700207904F030F983
:105BB0000121207904F078F9424E300004F04EFBC8
:105BC0000122414B41491D715A7119605A683000D8
:105BD00004F06CFB0A35013DFF20EDB2FFF750FEEB
:105BE000002DF8D1300004F0E1FAFA262000FFF78A
:105BF000D5FEF600002220001100FFF7E7FE0500A9
:105C0000E07201280BD003F0DDFEC01BB042F1D9D9
:105C1000012320006371FFF755FE0020FEBDD52251
:105C2000082152002000FFF7D1FE042318421BD0A8
:105C30002573257BFA26023D6B425D41F600AD07D8
:105C4000002237212000FFF7C1FE2A002921200071
:105C5000FFF7BCFE021EE07213D003F0B3FEC01BC0
:105C6000B042EDD90823D4E71D00FFF711FE013D36
:105C7000EDB2E072002DF8D10223AA28C9D1237316
:105C8000D7E7237B022B15D13A212000FFF79EFE98
:105C9000002801D00623BCE7FFF7FAFDC023184017
:105CA000984201D1BD3B2373FFF7F2FDFFF7F0FDF2
:105CB000FFF7EEFD2000FFF705FE01992000FFF73A
:105CC00099FDABE718180020780C002090D0030055
:105CD0007047020010B50C3204000121406A00F048
:105CE00053FD00280ED0236A002B06D1E368227AE8
:105CF000236280235B421343237220230120227AF4
:105D00001343237210BD70B50600FFF7E2FF0028B1
:105D100001D1002070BD736AF2681C79951E1A7C4F
:105D200095405A69AD186419A54206D0013C20007F
:105D300000F070FC0028F7D1EBE7736A01201A7CB1
:105D400080239B009340F269D318F361E2E70000DF
:105D500010B50400406900F037FC002803D0207E15
:105D6000014B4001C01810BD880C00200A00F0B59E
:105D70000B000E000700202187B00B321970013391
:105D80009A42FBD10723002501931EE010221849F7
:105D900002A807F05CF8002302AAD25C002A04D013
:105DA00001339442F8D1002020E0019BAB42FAD3AA
:105DB0002300213B5D2BF6D8403B192B01D8203C1A
:105DC000E4B26B1C7455DDB201373C78002C08D06E
:105DD0002E2CDBD1019B0A2BE5D00A230825019349
:105DE000F2E730782038431E9841C0B207B0F0BDCA
:105DF000C2F2000070B5427A04000D00002A01D002
:105E0000002070BD4B1CDB7F102B0ED10E3B43726C
:105E10004B8C02625B01C36100230120656220722A
:105E2000E360236163612376EBE7202BE8D1020076
:105E30001D3B4372496A1C320162280000F03AFCA3
:105E40000028E9D1DCE70000F0B5437A85B0040012
:105E50000F000392002B03D10120404205B0F0BD9A
:105E6000037ADB07F8D50269C3699B1A039A9A4241
:105E700001D99BB20393039B0293029B002B5ED03C
:105E80002369627ADD05ED0D606A5E0A022A25D17A
:105E9000406A80238019029E9B005B1B9E4200DDAE
:105EA0009EB24022237A134203D180239B009E425C
:105EB00003D1254B1B6883422CD1002100F084FBC9
:105EC0000028C9D0214B3900ED182A00AB199342A4
:105ED00032D01078013208700131F8E70279013AC6
:105EE0001640F6B2002D05D1002E03D1002B09D1AA
:105EF000236AE360636AE268901E1A7C5B699040E3
:105F0000C018C6E72200E1680C3200F0A3FB0028AD
:105F1000F0D1A1E701000E48009733002A00006885
:105F2000FFF7D8FD002897D0BF1923699B1923617B
:105F3000029B9E1BB3B29FE75D1B7F19F5E76B4683
:105F40000C20185E8AE7C0461C000020880C002048
:105F50008C0E002037B5437A05000020012B0BD9A9
:105F60002B690122DC056B462800D91D240FFFF7A1
:105F70006BFF012801D000203EBD2B6960011F335B
:105F80002B61014BC018F7E7880C002070B5437AED
:105F900004000E00002B01D1002070BDC2698A42AE
:105FA000FAD3022B02D126610120F6E7002901D1A4
:105FB000E160F8E7436A01691A7C751E09324B1EDD
:105FC000D340D540AB4201D800290DD1236AE3600C
:105FD000002DE8D02200E1680C32606A00F03AFB44
:105FE000013D0028F4D1D7E7ED1AF1E770B5437A07
:105FF00005000E00002B01D1002070BD037A7F2B1D
:106000002DD90121FFF7A4FE041EF5D06B7A012BD8
:1060100007D8EB691A0A037742771A0C1B0E8277AE
:10602000C3772B6A9BB2A3761B0AE3762B6A1B0C01
:1060300023751B0A63750F4B1B68002B0BD02100C7
:106040002000163118309847637E227E1B021343CE
:10605000A3741B0AE3747F222B7A13402B72002E49
:1060600003D110222B7A93432B72300000F086FA72
:10607000C3E7C046800C002010B501210400FFF7E3
:10608000B5FF002802D000230120637210BD00007C
:10609000F8B5437A0500012B01D00020F8BD037A42
:1060A0009A07FAD55B0712D4174B1868FFF760FD03
:1060B0000028F2D12A7A202714003C4010D0010099
:1060C0002800FFF793FF2B7ABB432B72E5E7C169EA
:1060D00003698B42E8D0FFF759FF0028E4D1DCE7E1
:1060E0000A4B1B68002B03D0200000F02FFAD4E7E6
:1060F000102328691343C0052B72C30D8020800034
:10610000C01A80B2CAE7C0468C0E0020880E00205C
:1061100073B50400407A0D00012801D0002076BD3F
:10612000237A9B07FAD5E3698B42F7D3002BF6D08D
:1061300020002669FFF72AFF0028EFD0606A002DB3
:1061400019D1216A00F082FB0028E7D02562802364
:10615000227A5B421343E561237201212000FFF79D
:1061600045FF0028DAD02900B54200D931002000CF
:10617000FFF70CFFD3E701AAE16800F06BFA0028F3
:10618000CCD0606A0199431CDB7F103B5A1E9341BF
:10619000094A5B421340094A9B189942D7D200F042
:1061A00055FB0028BAD0064AE168606A00F0A8FAF8
:1061B0000028CCD1B2E7C0460000FF0FF8FF000076
:1061C000FFFFFF0F1C4B70B515004A01D3181122B9
:1061D0000400D87A104204D03132154201D0002098
:1061E00070BD1820154A2176126862619A8A1204DD
:1061F0002262598B11432162DA7A024010D1DB69A5
:10620000E361012363720F2300212B402372E160BD
:10621000216101206B06E3D52000FFF779FFDFE75E
:10622000102ADCD12200606A1C3200F043FA0028F8
:10623000D5D00423E6E7C046880C00201C000020CF
:10624000F0B50500447A002087B00E001F0084429C
:1062500006D103A91000FFF789FD002802D1002014
:1062600007B0F0BD736A6B62F46034613369F26940
:1062700093421DD20F225B091A4030000192FFF7B2
:1062800069FE011EEBD00378002B05D0E52B48D129
:10629000002C03D00124E9E7002C05D16B461B79C3
:1062A0002B76334B1B686B610B78002BF2D10124EA
:1062B00012233B40122BD2D1002C43D001212800C5
:1062C000FFF746FD041ECAD020220021200006F060
:1062D000DAFD0B2203A9200006F0B9FD254B1B684F
:1062E000002B3CD0210020000E3110309847637CF9
:1062F000227C1B021343FF221A401B0AE3746376BD
:10630000E37BA2742276A27B1B021343A3751B0AB4
:10631000E375012000F032F90028A0D0297E3A0070
:106320000CE00B2203A806F083FD00289ED1302349
:106330003B40302B00D192E73A0001992800FFF74B
:1063400041FF8DE7737A022B00D188E73000FFF719
:10635000DAFC002800D182E72C76074CB4E7212232
:10636000A3730823227407326274E373BFE7C04645
:106370001C000020800C0020880C0020F0B5437A1F
:1063800087B004000F000392012B2ED1037A0293F1
:106390009B072AD5029B5B071FD4039B0093009A9F
:1063A0002369002A00D199E0606A5D0A0279DB0561
:1063B000013A1540DB0DEDB20193002D1AD1002BEF
:1063C00018D1E16800294BD1236A002B11D120009C
:1063D000FFF77FFC00280DD107E0C16903699942EE
:1063E000DBD0FFF7D3FD0028D7D101230020636065
:1063F00089E0E3608023019A9B009B1A6A46168815
:10640000009A9BB29A4200D91E1C626AE368117C12
:10641000023B8B405269B6B29B185D1980239B00EA
:106420009E4232D13D4B1A68AA4202D10122524209
:106430001A60029B3A481A09012329009343006815
:106440003A00FFF75AFB0028CFD080239B00FF18AB
:10645000009B9B1B9BB2009323699E1926619EE7BC
:1064600005AA00F0F7F800284DD0636A059A0133B9
:10647000DB7F103B591E8B412A495B420B402A4966
:106480005B189A42A3D2E260B4E7019B002B1CD1B7
:106490002369E269934218D3012000F06FF80028C5
:1064A000A3D01E4B214A1D60012311780B431370AA
:1064B000019A1F4B3800D31819009A198A420BD041
:1064C000057801300D700131F8E70121280000F056
:1064D0007BF80028ECD188E7D31AB8E7E169227A83
:1064E000994205D2E36180235B421343237206E0A5
:1064F000104B1B68002B02D0039B002BF3D1237A97
:106500001B0702D4039807B0F0BD01212000FFF75C
:106510006DFD002800D168E7F4E7C0461C000020AC
:106520008C0E00200000FF0FF8FF0000840C0020FC
:10653000880C0020800C002007B56B46D97107330A
:1065400001221900FFF71AFF0EBD000010B5084C1C
:10655000030021680120002909D00648064A006886
:10656000FFF7CBFA002802D000230120236010BDE2
:10657000880E00208C0E0020880C002070B50E4D77
:1065800004002B78002B01D101200AE003000B4905
:106590000B480C4A09680068FFF7AFFA002801D1E0
:1065A000002070BD002CEFD02000FFF7CFFF0028A7
:1065B000F6D000232B70E7E7840C00201C0000209D
:1065C0008C0E0020880C002070B50E4E050033683C
:1065D0000C0083420FD00120FFF7D0FF002801D12B
:1065E000002070BD084B094A29001868FFF77DFAA2
:1065F0000028F5D03560064B01201A7814431C7032
:10660000EFE7C0461C0000208C0E0020880C002004
:10661000840C002070B504000120FFF7AFFF0028B4
:1066200010D0002380221800074D92005919013321
:1066300008709342FAD10120044B054A1C6013787C
:106640000343137070BDC046880C00201C0000205E
:10665000840C0020C36870B501330C0015008B4218
:1066600001D2002070BD461CF27FC369C809102A00
:1066700000D1080AC0180D4B1B68834209D1F27F74
:106680000B4B102A0BD1E4B264001B5B2B60012082
:10669000E8E70021FFF798FF0028F0D1E1E77F222B
:1066A0001440A4001B591B011B09EFE71C0000202C
:1066B000880C0020F7B58027050016000024019102
:1066C000BF0001AA01992800FFF7C4FF002812D0DB
:1066D0003A002B7C9A406B1CDB7FA418103B5A427B
:1066E0005341054A5B421340044A9B18019A9A425F
:1066F000E7D301203460FEBD000001F0F8FFFF0F7A
:10670000F7B506000C000192012901D80020FEBD5A
:10671000C36801338B42F9D3471CFA7FC569CB09A3
:10672000102A00D10B0AED18134B1B689D4216D19D
:10673000FA7F124B102A19D16A46E4B2928864009B
:106740001A5301230E4918000A781A430A70327E40
:106750009A42DCD9B26855190A4A1560D7E7002178
:106760002800FFF731FF0028E2D1CFE77F22144055
:10677000019AA4001A51E4E71C000020880C0020B4
:10678000840C0020880E0020F0B5146887B0060045
:1067900002910192002C2AD000270134F3682500D1
:1067A0000133039300230093F368009A93421AD9AC
:1067B000039B9D4201D902252C0005AA2900300027
:1067C000FFF748FF00280ED0059A6B1C002A15D150
:1067D00002991A1B8A4212D11B4A29003000FFF786
:1067E0008FFF002810D10027380007B0F0BD029BB2
:1067F0000468013B5A425341DFB2CFE71C00009AC4
:106800001D0001320092CFE7AC4208D26B1E2A0075
:10681000190030000093FFF773FF009DE1E7019B33
:106820001968002905D1019B1C60002F08D1013790
:10683000DAE722003000FFF763FF0028F3D1D2E748
:1068400001343460D0E7C046FFFFFF0F022337B5A5
:1068500005000C00036001AA21002800FFF7FAFEE2
:10686000002815D0002221002800FFF749FF00284A
:106870000ED06B1CDB7F019C103B5A425341054AF2
:106880005B421340044A9B189C42E4D301203EBD66
:106890000020FCE7000001F0F8FFFF0FF8B53F4BC8
:1068A0000500141E196020D0042A01D90020F8BD6B
:1068B00000210800FFF788FE0028F7D0631E384A41
:1068C0001B01D318BF33FF331B785B06EED11B349B
:1068D00024011419A38962891B041343632BE5D98E
:1068E000E388248924041C43E0D000212000FFF722
:1068F0006BFE0028DAD08022294992000B7BC87AEF
:106900001B0203439342D1D10A7C002ACED0CB890B
:10691000002BCBD04B7B002BC8D02A760022012045
:106920002B712A7402002E7CB240934204D0721C58
:106930002A74072EF6D9B9E7C88A002800D1486A18
:10694000A860CB891B19EB610A691202120C6A84D8
:106950000F7C7843C0185301124A68629B185B127F
:106960001B186B610A7DC87C1202024300D10A6ABF
:10697000E41AA418F4400C4AEC606B1C944203D84F
:106980000C22DA77012092E7084A944201D81022BB
:10699000F7E7CA6A6A622022F3E7C0468C0E00203D
:1069A000880C0020FF010000F40F0000F4FF00003D
:1069B000074B10B50400417182710649186803F055
:1069C000D1FCFA239B005843E060200010BDC04674
:1069D0003400002040420F0070B504000D004079E3
:1069E000022103F015FA02F0EDFF024B6574C018A6
:1069F000A06070BD30F8FFFF70B505000E000024E8
:106A0000687903F07DFAB04205D1EA68631CA242BE
:106A100003D801246442200070BD1C00F0E7000090
:106A200070B5D0B00D00040002F0CCFF002D07D1EE
:106A3000A3683C4AC31A934202D8207C50B070BD70
:106A400000250221A06025606079257103F0E0F93E
:106A5000012002F0EDFF6079012103F0D9F960799E
:106A6000290003F021FAA379153B012B14D82E48F5
:106A700003F000F86079022103F0CAF9607C02F0AB
:106A8000F9FF72B600212000FFF7B6FF431C07D1C3
:106A90000020207462B6D1E7142002F0C9FFE9E7B4
:106AA00001212000FFF7A8FF431CF1D0A0260025FC
:106AB000760000212000FFF79FFF6B460121E85080
:106AC0002000FFF799FF2B0008356B445860B54252
:106AD000EFD162B6002201216846D300C0586B4452
:106AE0005E68431C01D0731C02D100202074A5E70E
:106AF000D510635D5B00DBB2B04210D30132635549
:106B0000282AE9D16178237822795B18A1785B186B
:106B1000E1785B18DBB29A42E7D10120E6E70B434C
:106B2000ECE7C046CF0700004C040000F8B50D00AC
:106B300011000600FFF774FF002800D16CE0B07967
:106B40000B380B2868D803F003FC063767676767C4
:106B5000676767675757B07804F040FAF678041C07
:106B600073B2002B04DA011C2C4803F0F3FF041C61
:106B70000F20304005F0A4FF294A2A4B05F094F974
:106B80000600201C0F0006F007F802000B00300082
:106B9000390004F063FA06F051F8002D0BD005F02F
:106BA000FBFF214A214B05F07FF90022204B04F026
:106BB00055FA06F043F8F8BD0F23F078B478184082
:106BC00005F07EFF164A174B05F06EF9060020000F
:106BD0000F0004F003FA05F0DFFF02000B003000A5
:106BE000390004F03BFA64B206F028F8002CD4DA3D
:106BF00080231B06C018D0E7FE23B478DB012002F7
:106C00001840F378184304F09FF905F0C5FF044AD3
:106C1000044B05F049F9E6E70648CCE7000080BFE1
:106C20009A9999999999B93FCDCCCCCCCCCCFC3FD1
:106C3000000040400000C07FD0B50400FFF7F0FE28
:106C400000282CD0A0790B380B2828D803F080FB23
:106C5000060627272727272727271B1B607805F0ED
:106C60002FFF104A104B05F01FF9060020780F0087
:106C700005F026FF02000B003000390004F0EEF9A9
:106C800005F0DCFFD0BD208840BA80B204F05CF98A
:106C900005F082FF034A044B05F006F9F0E70348CC
:106CA000F0E7C0469A9999999999B93F0000C07F39
:106CB0000123C3710023438103737047F8B50F00AC
:106CC0001600094C0500017A2000FEF7B9F93900D9
:106CD0002000FEF7D2FA31002000FEF7CEFA2000A5
:106CE000FEF7BAF9A871F8BDD409002070B5C579CE
:106CF0000400002D12D170222021FFF7DFFF2A00AF
:106D000021212000FFF7DAFF2A0022212000FFF7CF
:106D1000D5FF0C2223212000FFF7D0FF70BD00001B
:106D2000F0B50500274C85B0017A2000FEF788F900
:106D3000A8212000FEF7A1FA2000FEF78DF9297A9C
:106D400006222000FEF776F902F03CFE0600200045
:106D5000FEF79AF905280EDC6B89002BF7D002F0BC
:106D600031FEB3B280B2C01A6B899842EFDD0123C5
:106D70002B7305B0F0BD2000FEF7D8FA0600200006
:106D8000FEF7D4FA07002000FEF7D0FA01902000A9
:106D9000FEF7CCFA02902000FEF7C8FA039020001C
:106DA000FEF7C4FA029B3F021A026B461B79F6B249
:106DB00013436A466B800302107B374318432F80CE
:106DC000A880D6E7D409002070B516000F4C0D003E
:106DD0002000FEF735F931002000FEF74EFA2000C2
:106DE000FEF73AF9002802D00120404270BD01228E
:106DF00029002000FEF71EF92000FEF745F90028C3
:106E0000F2D02000FEF792FA00B2EFE7D40900209A
:106E100070B506000C001500012905D0022A1CD10E
:106E200001290ED9002070BD002A0AD10F221C2191
:106E30003000FFF7C9FF3D281ED10025012C0CD1E1
:106E40000AE00F221E213000FFF7BEFF3D280ED1C1
:106E50000125AC4201D125000024F471002C04D19D
:106E60001E23012D00D0023B33720120DBE7012DF0
:106E7000DCD1012CD6D0F0E7012CD3D0022DECD1FF
:106E8000D0E710B50368C9B21B68984710BD02234C
:106E900003705B334370704770B50C001600002917
:106EA00002DA441AA47864B2084D41782800FEF74B
:106EB000C7F821002800FFF7E4FF31002800FEF7A3
:106EC000DCF92800FEF7C8F870BDC046D4090020E0
:106ED000037810B5B022012B02D0002B03D1E022A1
:106EE0002021FFF7D9FF10BD70B50400144E417882
:106EF0003000FEF7A5F8A8213000FFF7C2FF3000F0
:106F0000FEF7AAF8617803223000FEF793F830000C
:106F1000FEF7BAF80228FADD3000FEF707FA05009E
:106F20003000FEF703FA04003000FEF7FFF92406F4
:106F3000EDB2240C40B22C430004204370BDC04687
:106F4000D409002010B5FFF7CFFF03F0FDFFE621C5
:106F5000890503F0CDFC10BD70B50D000D4C20006F
:106F6000FEF76EF80F212000FFF78BFF2000FEF7E1
:106F700073F8012229002000FEF75CF82000FEF7DC
:106F800083F8002803D02000FEF7D0F970BD01205F
:106F90004042FBE7D409002070B50D0041780400A1
:106FA000FFF7DAFF6A1E0300012A0DD8BD2802D1BF
:106FB0000120207070BD0020022DFBD10020BB2BD2
:106FC000F8D120700130F5E700208542F6D0F1E7D6
:106FD000531E70B504000E001500012B09D90020C6
:106FE000002A0ED15C23310063702000FFF7D4FF2C
:106FF00007E05D234370FFF7CFFF002801D1022D8A
:10700000F0D070BD10B50400FFF7E2FF00280CD0EF
:107010002378002B0AD0012B07D12333E3700133EF
:1070200023710B3363710133A37110BD2323E3700C
:10703000013323710133F5E70123437300230382F6
:1070400083747047F8B50F001600094C0500817B6A
:107050002000FDF7F5FF39002000FEF70EF93100A2
:107060002000FEF70AF92000FDF7F6FF2873F8BDAF
:10707000D409002010B5437B0400002B0DD18022E1
:107080001021FFF7DFFF802211212000FFF7DAFF38
:10709000042212212000FFF7D5FF10BDF0B5050036
:1070A000274C85B0817B2000FDF7CAFF28212000F6
:1070B000FEF7E3F82000FDF7CFFFA97B06222000B2
:1070C000FDF7B8FF02F07EFC06002000FDF7DCFFB4
:1070D00005280EDC2B8A002BF7D002F073FCB3B22C
:1070E00080B2C01A2B8A9842EFDD0123AB7405B041
:1070F000F0BD2000FEF71AF906002000FEF716F991
:1071000007002000FEF712F901902000FEF70EF9AB
:1071100002902000FEF70AF903902000FEF706F91E
:10712000029B3F021A026B461B79F6B213436A4672
:107130006B800302107B374318432F80A880D6E76B
:10714000D4090020F0B50500274C85B0817B2000D4
:10715000FDF776FF22212000FEF78FF82000FDF7D3
:107160007BFFA97B06222000FDF764FF02F02AFCCA
:1071700006002000FDF788FF05280EDC2B8A002B77
:10718000F7D002F01FFCB3B280B2C01A2B8A98422B
:10719000EFDD0123AB7405B0F0BD2000FEF7C6F8AB
:1071A00006002000FEF7C2F807002000FEF7BEF838
:1071B00001902000FEF7BAF802902000FEF7B6F822
:1071C00003902000FEF7B2F8029B3F021A026B46C2
:1071D0001B79F6B213436A462B810302107B3743B7
:1071E0001843EF806881D6E7D409002010B5040069
:1071F000FFF754FF2000FFF7A5FF10BD70B5160084
:107200000F4C0D002000FDF71BFF31002000FEF7A2
:1072100034F82000FDF720FF002802D00120404272
:1072200070BD012229002000FDF704FF2000FDF7BA
:107230002BFF0028F2D02000FEF778F800B2EFE72D
:10724000D409002070B506000D001400012905D0F6
:10725000022A1CD101290ED9002070BD002A0AD1B2
:107260000F226A213000FFF7C9FF69281ED10024D0
:10727000012D0CD10AE00F226B213000FFF7BEFF79
:1072800069280ED10124A54201D12C000025757377
:10729000002D04D1013C63425C416A34B473012087
:1072A000DBE7012CDCD1012DD6D0F0E7012DD3D0C6
:1072B000022CECD1D0E700004B1E10B50B2B00D9EF
:1072C00001210A2201395143024B0C30591805F0B3
:1072D000BEFD10BDECF2000070B501250A236D4221
:1072E0004560836001210400FFF7E6FF3C22044B68
:1072F00025601A600022034B20001A6070BDC04652
:1073000020000020940E002010B54160C8B2012179
:1073100002F07EFD10BD73B501AE3180057D040025
:107320000121002D01D0002101256368D8B202F0AF
:10733000BBFDA3893078584302F09CFB63682900A9
:10734000D8B202F0B1FD7078A389584302F092FBE5
:1073500073BD0000006810B5431C09D00023054A26
:10736000C0B21360044A05491360022202F00CF80F
:1073700010BDC046940E00209C0E00200975000030
:10738000036810B50400D8B202F096F801235B42FE
:10739000236010BDF7B543680400009101920133EA
:1073A0002AD00668731C01D0FFF7EAFF0027A36804
:1073B000BB4216DD019B5D1E002D0CDB0123AB40A3
:1073C000009A1A4205D0618A2000FFF7A4FF013D10
:1073D000F2E72169F8E7E1892000FFF79CFF013718
:1073E000E5E763680021D8B202F05EFD731C03D0AC
:1073F00026602000FFF7AEFFF7BD00000A23F0B5BE
:10740000421E5A43394B89B09B1802915979DA7858
:107410000091997901900591D9791F790691997810
:107420001C7A8A4200D91100314E306802F09AFF6E
:107430000500304B64211868631E9C41684302F0CC
:1074400091FF0022009B6F436B430493059B013423
:107450006B430593069B03976B430693029BA10026
:10746000013B00930796009BA3422AD9079B039FE9
:10747000CB189C461B685200DF1BFE17BF197740D4
:10748000B84208D96746049E7F68BF1BFE17BF1924
:107490007740B84212D8059E9B1BDE179B1973409C
:1074A000984220D9124B069ECB185B689B1BDE17B7
:1074B0009B197340984216D901231A4302340831AC
:1074C000D1E7029B0020072B0BD90B4B01301A6030
:1074D000009B0A4A5B081360094B019A1D60094B27
:1074E0001A6009B0F0BD0020FBE7C046ECF20000D6
:1074F000A00E002020000020940E00209C0E0020F2
:10750000900E0020980E0020F7B502F061FA1D4F92
:1075100001903A681C4C831A0093009A1B4B9A42C4
:107520001ED91B4E3368002B08D01A4A00991268E6
:107530008A1AD11752184A40C72A0FDC0133336028
:10754000022B0BD1012521682800FFF757FF0028E7
:1075500002D101350D2DF6D10023336000232360C5
:107560002368422B03D90023094A23601360236850
:1075700000995A1C2260074A9B009950019B3B606E
:10758000F7BDC046B40F0020AC0F0020CC100000A7
:10759000B00F0020A00E002010B5024801F046FEFA
:1075A00010BDC0467C10002010B5024801F03EFE20
:1075B00010BDC046B80F0020F7B501240326154FB3
:1075C0001549380000F042F81449154800F03EF81B
:1075D0001449154800F03AF81449154800F036F8F7
:1075E0001449154800F032F8144D1549280000F0F0
:1075F0002DF839000096230001940022114801F073
:10760000A1FD009629000194232324220E4801F0B5
:1076100099FDF7BD4011002000080042000C004217
:1076200044110020001000424811002000140042C4
:107630004C1100200018004250110020541100206D
:10764000001C00427C100020B80F00200160704731
:107650009446F0B59E1E721E9641624605689207DA
:107660002F6836063A4332432A60072505AC247852
:107670000068A4012940214342680024022B00D065
:107680005C03114321434160F0BD30B5C025036860
:10769000AD031C6812052A402243C0240904A40239
:1076A00021401143196003685A6814435C6030BD7F
:1076B0000123026811680B43136003681A68D2073C
:1076C000FCD4DA69D207F9D4704702230268116842
:1076D0000B4313600268D3699B07FCD470470268B0
:1076E000137E9B07FCD57047002203685A837047BE
:1076F0000368187E4007C00F70470368187EC009F2
:107700007047802302685B42117E0B4313767047FB
:107710000368588B8007C00F704702230268518BA3
:107720000B43538370470368187EC007C00F704730
:107730000368188DC0B2704703681A7ED207FCD563
:1077400089B2012019857047012203689A75704734
:10775000012203681A75704770B5012604684B084A
:1077600033403140256809075B070B432B432360F7
:1077700004685100034802F0F5FD0138C0B22073DF
:1077800070BDC046006CDC020123026811680B4327
:10779000136003681A68D207FCD4DA69D207F9D4F7
:1077A00070470223026811680B4313600268D369B3
:1077B0009B07FCD470470368DA699207FCD4022166
:1077C0001A688A431A607047036818684000C00F3F
:1077D00070470268936A5B0A5B021943916203680F
:1077E0001A7E5207FCD5986AC0B27047012302681E
:1077F00011680B43136003681A68D207FCD4DA6976
:10780000D207F9D470470223026811680B43136052
:107810000368DA699207FCD430215A8B8A4311003D
:1078200010220A435A830268D3695B07FCD470476D
:107830000221026813688B4313600268D3699B07B7
:10784000FCD4704780230268DB02116851680B4347
:1078500053607047036803491A685A680A405A60BF
:107860007047C046FFFFFBFF032230B5036811409D
:107870001C68074D5A6809042A40E4061143640F46
:107880005960052C03D10268D3695B07FCD430BD75
:10789000FFFFFCFF70B5056804006B8B9B069B0F18
:1078A000022B0DD06B8B00209B069B0F032B32D03D
:1078B0006B8B9B0704D56B8B9B069B0F012B2AD1EF
:1078C0006B6A49001143DB0AC9B2DB020B436B62EE
:1078D0002368002A13D11A7ED207FCD55B8B9B0646
:1078E0009B0F022B04D0490800222000FFF7D2FF93
:1078F0002368588B4007C30F012058400BE0187EC7
:107900008007C00FF4D11A7ED207F8D5C02259687B
:1079100092020A435A6070BD0368283319700368E5
:10792000187EC007C00F03D15A8BD207F8D5704715
:10793000588B4007C30F01205840F8E703682833ED
:107940001970036800201A7E520704D5588B012352
:107950004007C00F5840704703681868C006400FC2
:10796000043843425841C0B270470368588B8006C0
:10797000800F023843425841C0B270470368187EF6
:107980004007C00F70470368187EC007C00F7047DC
:107990000368588BC006C00F70470368187E8007C5
:1079A000C00F70470368588B0007C00F704703680B
:1079B0001A68D206520F052A05D11A7E920702D400
:1079C0001A7ED207F9D528331878C0B27047000064
:1079D0000368214A30B593422FD0204A93422FD0DA
:1079E0001F4A93422FD01F4A93422FD01E4A9342E0
:1079F0002FD01E4A93421FD10E23192201210325A5
:107A000099401B48C024016099082B40AB40FC35CD
:107A10009D4089000918A4000859A843C0259D402D
:107A20002B0003430B518023DB011A43114B5A8077
:107A30005A7852B2002AFBDB30BD09231422DDE75D
:107A40000A231522DAE70B231622D7E70C23172285
:107A5000D4E70D231822D1E700080042000C0042B1
:107A6000001000420014004200180042001C0042B6
:107A700000E100E0000C0040F8B504000F00160023
:107A80001D00FFF7A5FF2000FFF712FE1C21BB0021
:107A90000B4071072268090C0B4313608423226892
:107AA0009375012F1AD11021012E00D008390C4BEB
:107AB00069431868C00002F055FC072221680240A3
:107AC0008B895203DB04DB0C13438B812268030494
:107AD0009089DB0C400B400318439081F8BDC046F1
:107AE00034000020F7B50600019308AB1F780D00A5
:107AF0001400FFF749FE3000FFF76AFFC02224059B
:107B000092031440BA070C2717433C43C0270722AF
:107B1000BF022D0433683D4025431D60019B316841
:107B200013401A0080239B0213434B60F7BD70B5CE
:107B300004000D001600FFF74BFF2000FFF756FE74
:107B40001C2221686D000B6893431A001023134315
:107B5000FF220B60236815405D62002E04D00123D4
:107B60002268516A0B435362072322689375226887
:107B7000D3695B07FCD470BDF8B504000F00FFF7B4
:107B800027FF2000FFF732FE1422236879001A60D5
:107B90000C4B25681E68300002F0E4FB0A49040023
:107BA000300002F0DFFB7D23FA215843C90002F0C8
:107BB000D9FBFF23241AE868053C1C409843044382
:107BC000EC60F8BD3400002040420F0000207047F8
:107BD00070B50F26CB1D013902003240D5B22C0002
:107BE00000093034092A00DD07341C70013B8B4248
:107BF000F2D170BD10B50C000B4B1868FFF7E8FF11
:107C000021000A4B08311868FFF7E2FF2100084BFA
:107C100010311868FFF7DCFF2100064B1831186897
:107C2000FFF7D6FF202010BD0CA0800040A08000F0
:107C300044A0800048A0800008B4024B9C46103845
:107C400008BC6047F57B00003F20704713B56B46CA
:107C50000268D9710733546819000122A04716BD84
:107C600070B50A260B7892B06E44023305000B7093
:107C70003C220021300005F006F9394801AC06909D
:107C8000384824210790062020776846364AA17498
:107C90002281364A364BA281FD3AFF3A8018C177DD
:107CA000684623390630C17768460730C17702A895
:107CB000C1770720F277032608316944C87703A902
:107CC000CE7710212B366E443170092621851F3165
:107CD00069440E700CA9053E0E70332123800223E7
:107CE00069440B7006360DA90E7022493536A186FF
:107CF0003B216E44307010A86274E27702703D320E
:107D000069446A440B70137040210022E3702371B0
:107D10006371A37341336B44218719705A702B7DB3
:107D2000C039A370A37263770133DBB2A3776A7D96
:107D30000B200D0068441543C5773120684403705B
:107D40003A23501C6B441870412302320A436B449F
:107D50001A7021004222084800F0C2FD12B070BD26
:107D60001001042402060524090400000102000099
:107D7000080B000007050000B411002008B4024BF6
:107D80009C46103808BC6047617C000070B5027DDD
:107D90000B790C0000259A420BD10B784E78A12B61
:107DA00009D1212E05D107221B491C4800F098FD5E
:107DB0000135280070BD212BFBD1202E22D10722B6
:107DC0001549164800F0C2FC9622134BD2001968E0
:107DD00091421DD1DB79DB071AD4FA2002F008F9B1
:107DE00000210E4800F084FE0125232EE1D1E37826
:107DF000A2781B0213430A4A00210848136000F0CE
:107E000077FED6E7222EEFD18A78034BDA71DBE7D3
:107E100002F0F8F8E4E7C04628000020B411002082
:107E20002400002008B4024B9C46103808BC604770
:107E30008D7D000010B5417D006A013100F0B0FB7E
:107E4000034B1B6801335A1E9341181810BDC046DE
:107E50003000002010B5417D006A023100F0B6FB11
:107E600010BD10B5417D006A023100F07DFB10BDF0
:107E700070B50D00417D0400130002312A00006A34
:107E800000F078FC002801D10123636070BD000080
:107E900010B5054C23685A1C04D103685B699847E8
:107EA00003002060180010BD30000020074A0300C6
:107EB000106810B5411C03D001235B42136010BD54
:107EC000597D186A013100F005FCF8E73000002008
:107ED0000020704770477047FA239B0010B58360FD
:107EE0000F4B0022C3820300283383610D4B040033
:107EF0004260C2611800403323610830631D216273
:107F00002060DA778323A362813BE36280332363BB
:107F100001F0A6FB2100103101F074FB200010BD20
:107F200003020000E4F70000022110B5094B1A68B3
:107F3000437D5B01D318FF339C7A21439972437DC3
:107F40000133DBB25B01D3180122FF33997A0A4374
:107F50009A7210BD6C1600207047000010B50249DF
:107F60000248FFF7B9FF10BDB411002058110020DE
:107F7000704710B5040001F0EDFD200010BD0000B9
:107F8000F0B5822919D1C3B2294D5A01AA189169B5
:107F9000284C80010C40C02189052143916126496C
:107FA000083340187021506128685B011A5C8A43CD
:107FB000110030220A431A54F0BD0029FCD1C0261A
:107FC000C1B21B4C4B01E3189A681A4DB6052A4002
:107FD00032439A60194A800182185A600A000727C2
:107FE000246808325201115DB9430F000121394361
:107FF00011559F6910493D4040182E439E615861BC
:108000007020115D814308001021014311559968CA
:108010000B48A218084080214903014399609968E0
:10802000890B89039960402311790B431371C3E7CE
:108030006C160020FFFFFF8FE0110020A01300202E
:10804000FF3F00F0EFF3108303600123436072B63B
:1080500070470368002B02D162B6BFF36F8F704781
:1080600073B5836D0400002B1BD10600A83635784C
:108070006846FFF7E7FF019BEDB2013B02D335787D
:10808000EDB2FAE768460193FFF7E3FF002D01D157
:10809000002076BD2300A4331868A0342368C01ADA
:1080A000F7E76846FFF7CEFF22000025019BF43278
:1080B000013B02D31578EDB2FAE768460193FFF76A
:1080C000C8FF002DE4D02300F0331868EC34E5E756
:1080D00010B5436D4468DBB25A01A2189168094893
:1080E00008330840802149030143916091685B0196
:1080F000890B890391602268D318402219790A43B9
:108100001A7110BDFF3F00F0F7B5436D4268DBB256
:10811000190004000831106849014118C979C907DC
:1081200011D55B01D21893689B049B0C0CD12000E5
:10813000FFF7CEFF63681A68636DDBB208335B013B
:10814000D3187F22DA71F7BDE16D002923D1210018
:10815000A4310B6023000125AC33E565684653600C
:10816000FFF770FF260020002100019BA836013B8D
:10817000F430F5315A1C33D0357002785F1ED2B21C
:108180000A700A78002A04D120000193FFF7A0FFAB
:10819000E8E73B00EEE72100F0310B600023E365E8
:1081A0002300603353606846FFF74CFF012526002B
:1081B00020002100019BF436013BA830F5315A1C08
:1081C0000ED0357002785F1ED2B20A700A78002A8B
:1081D00004D120000193FFF77BFFE8E73B00EEE7C7
:1081E00068460193FFF735FFA4E737B56B46DC1D02
:1081F00000230D00237001F033FA210001F0BFF9D4
:108200002B681818286020783EBD0000F7B50024C0
:10821000514B012105001F201C7001F0F9FD0121C7
:108220001F2001F041FE4D4B01211E201C7001F06A
:10823000EFFD01211E2001F037FE2023484A0F20C8
:10824000D1690B43D361012246490B7813430B706C
:10825000454B19788143197006211C782143197008
:1082600042490C7822430A701A7802401A70602240
:1082700019780A431A703E4B3E4A5A805F78FF09CC
:10828000FCD13D4801F098FB01233C4C3C4E226858
:10829000300011780B43137080223900520004F033
:1082A000F2FD22689378DB07FCD456621F26354B1B
:1082B0001B68590B980C9B01314030405B0FB14259
:1082C00000D105211F2800D10238072B00D1043B23
:1082D00031408901178D01912B4930400F400199A0
:1082E00039431185118D0700B143080038431085CB
:1082F000118D1803254B7F260B4003430C2013855B
:108300000823D17881430B430321D3702268D378AB
:108310008B4301390B43D3702268137833401370B9
:10832000042322681678334313702268C12413890A
:10833000A40083431648138103591B021B0A0351EF
:1083400080230360137813481943012311702B70A5
:108350000021FFF701FEF7BDD5110020D411002048
:1083600000040040584400413C440041594400414D
:10837000000C004006400000498D00006C160020F3
:1083800070160020246080003FF8FFFFFF8FFFFF82
:1083900000E100E0581100200078002810D00121F1
:1083A000084B1B681A898A431A810822198B0A43D1
:1083B0001A830422198B0A431A830022024B1A6083
:1083C0007047C0466C1600206416002010B50F4A96
:1083D00093699B0B9B03936113680222FF331A720C
:1083E0009879823A02439A711A7A9207FCD57F24CF
:1083F000074A2140937A0800A343190080230143D0
:108400009172917A5B420B43937210BD6C160020FF
:108410000050004110B50C0001F022F9210001F0DC
:10842000E1F8002804D1034A93699B0B9B039361F5
:1084300010BDC0466C160020F8B50D00832A19D176
:10844000CBB23B4C5A01A21891693A48AD010840A1
:10845000C021890501439161374920686D18702159
:10846000083355615B011A5C8A43110040220A43BC
:108470001A54F8BD022A55D1304A8B00985800286A
:1084800002D003685B699847F82001F05FFB0400A5
:10849000274E2B4B4660036040220021083004F039
:1084A000F2FC22000023A032A3646565E364236527
:1084B000A365E3655360D3641372136013654C3294
:1084C00013725372FF222B001340590171188868F0
:1084D000184F08330740C020800538438860306853
:1084E00007265B01195CAD00B1430E000321314347
:1084F00019542300616D60681140490141186033CF
:108500004B60616D63680A401B6852019B18012231
:10851000FF33997A20000A439A72FFF7D9FD074B7F
:108520005C51A6E711002800FFF72AFDA1E7C0462D
:108530006C160020FFFFFF8FE0110020B811002013
:108540003CF8000070B505000124064BA200D2588B
:10855000002A06D0210028000134FFF76DFF0A2C05
:10856000F3D170BD8C1100200B4BCAB20B488901AE
:10857000C9185301C318596199690832890B8903D5
:108580009961036852019A180223D3715179823B91
:108590000B4353717047C046E01100206C16002059
:1085A000084B8A00D05810B5002803D003689B6898
:1085B000984710BDC9B2044B490159188868800416
:1085C000800CF6E7B81100206C16002010B50C00E6
:1085D000FFF7E6FF00280CD0064BE4B21B68083416
:1085E00064011C19802362795B4213436371022387
:1085F000E37110BD6C160020F0B51C00304B85B047
:108600001B6807000D000292002B55D02D4E3178CB
:10861000C9B2002902D11E2001F046FC6423337048
:10862000294BAA00D058002808D0036822005B68B4
:10863000029998470400200005B0F0BD29003800D9
:10864000FFF7AEFF844204D929003800FFF7A8FFE6
:1086500004000121EBB21D4E03935B010193F2185C
:1086600093689B0B9B039360019A336802989B1855
:10867000FF335A7A0A435A72154BA901C9182200CE
:1086800004F0E5FB002CD6D029003800FFF788FF66
:108690000028D0D14021039B326808335B01D318F6
:1086A0001879014319710121D971019BD318FF3346
:1086B0009A7A0A439A72BEE701246442BBE7C04635
:1086C00064160020D4110020B81100206C16002080
:1086D000A013002013B56B46DC1D22000123FFF719
:1086E0008BFF012801D1207816BD01204042FBE715
:1086F00070B5CBB2124A13485C018901891802197E
:1087000051609168104D08330D4080214903294381
:10871000402591609168890B8903916001685A0135
:108720008A1816793543157195796D06FCD55B016C
:10873000C918CB79DB07FCD500198068C0B270BDC1
:10874000A01300206C160020FF3F00F070B50D0054
:1087500000211400FFF7CCFFA04200D92000002325
:108760000349A34203D0CA5CEA540133F9E770BD60
:10877000A0130020F0B51E003F4B85B01B680F0012
:108780000192002B3FD08023DB019E423BD83B4C23
:108790002178C9B2002902D11F2001F085FB642392
:1087A00000252370364BBA01D3180293002E2CD02B
:1087B000344B1B680393FF233B401C000093083499
:1087C000039B64011C19A379DB0921D02E4B2F498F
:1087D000186801F0C7FD2E4B1721584301F0C2FD68
:1087E0002C4BE279920713D4DA5D002A01D10138CB
:1087F000F7D20122DA55009B5A01224B9B189A6945
:10880000920B92039A6101256D42280005B0F0BDDC
:108810000022204B3400DA553F2E09D9009B40241A
:108820005A01184B9B188022996912060A439A61D3
:1088300022000199029804F00AFB009BA1045A014E
:10884000104B890C9B18029A2D195A619A69361B94
:10885000920B92030A439A61009B039A08335B01CF
:10886000D3180222DA715979823A0A435A71019B6C
:108870001B1901939AE7C04664160020D511002009
:10888000E01100206C1600203400002040420F0050
:1088900070110100D711002070B50D001C000D4BA8
:1088A000AE01F61811003000220004F0D0FAEDB24B
:1088B00009496D014D196E61AB69084A20001340EA
:1088C000AB61AB69A2049B0B920C9B031343AB619E
:1088D00070BDC046E01100206C160020FF3F00F084
:1088E000F7B5104B01901B780F001500002B0CD131
:1088F0000D4B16001C78002C09D00C4E0C48348807
:108900002018641904F0A3FA34802800FEBD002E5C
:10891000FBD03A19330000210198FFF7BDFF24185E
:10892000361AF4E760150020611600206216002058
:1089300061150020F8B50F0016000024012A26D981
:10894000100004F04FFA0500380004F0FDFF032387
:1089500002220130400028706B7096420DD93978A0
:1089600000290AD0531CDBB20137A9549E4203D020
:108970000232EC54D2B2F0E7320029000548FFF78A
:10898000AFFF441EA041C4B2280004F035FA200015
:10899000F8BDC046B4110020F0B50024012685B012
:1089A000184B0F0069461E7005000094FFF71DFC70
:1089B000154B01A90B806A3BFF3BCB715A330B72FD
:1089C000009B8C7109334B800E4B4E7108711C70EB
:1089D0003A00092F0FD00D4F09223E700C4E28008F
:1089E00000943480FFF77CFF69462800FFF7FDFB09
:1089F000328808493C702800FFF772FF012005B05B
:108A0000F0BDC0466015002009020000611600207C
:108A1000621600206115002070B5CE7892B0050076
:108A20000C00022E0BD18B79C9792C48090219430D
:108A3000FFF7B2FF411E8841C0B212B070BD00F016
:108A40000FFE210000F0AFFD002803D0C117081A67
:108A5000C00FF2E7012E0ED1E279A37912021A4378
:108A60001F49112A13D8D2B2002A10D02800FFF7CC
:108A700037FF0120E1E7032EDFD1A378002B08D1D7
:108A8000E279A37912021A431649032AEBD90A782C
:108A9000ECE7022B08D1E279A379120212491A43BA
:108AA0002800FFF747FFC8E7012B05D1E279A3793A
:108AB00012021A430D49F3E7032BBED141220100F4
:108AC00001A804F0E0F900F0CBFD01A900F07BFD66
:108AD000E279A37912021A4301A9E1E7B411002057
:108AE00074F8000068F8000058F800006CF8000006
:108AF000CBB204495B01C9188B699B0B9B038B614B
:108B00007047C0466C16002037B5050048780C0049
:108B10000B2810D801F01CFC061B0F2B0F404561E1
:108B2000494C5A5D097801AA002906D10223118017
:108B30002800FFF7B1FE01203EBD00231380284B23
:108B40001B78012B00D1137002230021F0E78A78F3
:108B50000023012A03D101AA1380224BF0E7204A07
:108B60001370214A93699B0B9B039361E3E78C7815
:108B7000012C06D100211B4B01AA1C70117023008F
:108B8000D6E70120002CD7D1154B174A18709369EE
:108B90009B0B9B039361CFE789782800FFF716FCB6
:108BA000C9E72800FFF738FFC6E701230F4ACCE7E3
:108BB0000B780020DB06BFD12800FFF7C3FCA278AA
:108BC0000A4B0B481A60FFF7AFF9CAE70123094ABD
:108BD000BBE78A78074B1A60C3E70020ACE7C046C2
:108BE000D6110020DE1100206C1600206416002033
:108BF00058110020681600204A4BF7B51E78050072
:108C0000002E00D07EE0484C23689A8B12070DD5C9
:108C1000082231009A833000FFF7B2F9102223684E
:108C2000FF33997A0A439A72404B1E6023689A8BED
:108C300052071FD504229A833D4A1378002B0AD08D
:108C40001378013BDBB213701378002B03D10121A1
:108C50001F2001F029F9374A1378002B0AD0137826
:108C6000013BDBB213701378002B03D101211E20CE
:108C700001F01AF92368FF331A7A920603D52022ED
:108C8000597A0A435A721A7AD20623D569460800DD
:108C9000294AC0CAC0C0A268920B9203A2604022B7
:108CA000587902435A7160230A7828001A422AD15F
:108CB000FFF72AFF2368FF33002827D08022997905
:108CC00052420A439A711A7A520603D54022597ABF
:108CD0000A435A727F2601252368FF331E722F0034
:108CE000236808377F01DB19DB79002B07D0134B92
:108CF000AA00D05800280DD003681B68984701359A
:108D0000082DECD1F7BDFFF785FBD3E720210C4AF6
:108D10009171D8E729000B48FFF7DDF82368DF19C8
:108D2000FE71ECE7611600206C160020641600202E
:108D3000D5110020D4110020A0130020B81100206C
:108D4000FF5000415811002010B50248FFF754FFB2
:108D500010BDC046B411002080235B0003800023B7
:108D6000436007330372704783000148C01870479F
:108D70008C110020836C402B09D03F22036CC1541E
:108D8000036C013313400364836C013383647047C5
:108D9000F7B505006846FFF755F900264022019B0C
:108DA000013B02D32E6D961BFAE768460193FFF74D
:108DB00050F9AB6D6846002B4FD1FFF743F92900FE
:108DC000019BA831013B5A1C0CD00C785A1EE4B20E
:108DD000002C05D168460193FFF73BF92000FEBD4A
:108DE0001300F0E7684601930024FFF732F92A00E8
:108DF0002900A0321368A431B4420ED0086898420A
:108E00000BD92800591CEB18116060331978083011
:108E1000C9B2FFF7AFFF0134E9E709689942DDD134
:108E2000002313600133AB656846FFF70BF92F0091
:108E30002A000021019BA837013BF532581CC9D0FC
:108E4000397010785E1E002805D01170280001933B
:108E5000FFF73EF9EBE73300F0E7FFF7F3F82900FF
:108E6000019BF431013B5A1C06D00C785A1EE4B227
:108E7000002CAFD01300F6E7684601930024FFF7FB
:108E8000E8F82A002900EC321368F031B44202D02D
:108E9000086898421DD8096899429FD10023684606
:108EA0001360AB65FFF7CEF82F002A000021019B6D
:108EB000F437013BF532581C00D18BE7397010783C
:108EC0005E1E002811D0117028000193FFF700F9F1
:108ED000EAE72800591CEB181160AC331978083008
:108EE000C9B2FFF747FF0134CBE73300E3E710B522
:108EF0000400FFF74DFF206D10BD10B50400FFF713
:108F000047FF236D002B03D0E36CE418207A10BDDB
:108F100001204042FBE7F7B517000E000400FFF701
:108F200037FF6846FFF78EF83F2200259446019BE5
:108F3000013B5A1C19D0BD4215D2226D002A12D015
:108F40000121226D4942002A0AD06046E26CA21833
:108F5000117AE26C01320240E264226D013A22652C
:108F600071550135E7E7013BE3E768460193FFF7F9
:108F700070F82800FEBD0000014B024A1A607047DD
:108F80006C160020005000410120704710B50368A6
:108F9000014A1B6A984710BD13040000C06D70475A
:108FA000A83003684020C01A7047C36D002B03D05F
:108FB000836DC018007D704701204042FBE710B56B
:108FC00004000069FEF774FB002322006365A032F1
:108FD000A365E365A83413605360236010BD0200ED
:108FE00010B5A8321368002BFCD10069FEF777FB9F
:108FF00010BDF02001403039484248417047F0230D
:109000001B011940802306209B0099420AD001339E
:10901000FF330130994205D0802302385B0099422A
:1090200000D0002070470F2001400020012903D00C
:109030000239481E8141481C704700000300F0B50A
:10904000182685B00391AC3304001878330008214A
:109050004343334D1700EB18595600F069FF2300C6
:10906000AD331878330008214343EB18595600F00C
:109070005FFF2300AF331B78022B0AD12300C033DC
:109080001878FF2805D008214643AE19715600F024
:109090004FFF2600B0363078FF2819D0012100F0AC
:1090A000B7FE1822210033781E485A43AB56B4311C
:1090B000DB01181808601C49AD185B18210001225B
:1090C000B8310B6069688A402100BC310A601A60BF
:1090D0000122039B11002069FEF7CEFC390020001D
:1090E000FFF78DFF390005002000FFF79CFF3900D6
:1090F00006002000FFF77DFF330000902900206963
:109100000122FEF7A5FA2300AE331A7859782069B8
:10911000FEF7BBFA2069FEF7D8FA05B0F0BDC046ED
:1091200064F30000184400411444004110B540228B
:109130000021040003F0A7FE0023200023646364E1
:10914000A36410BDF7B51D0008AB1B7804000093A5
:1091500009AB1B781600019300234360FA239B00A0
:1091600083600E4B0F00083303601430FFF7DEFFFF
:1091700020006030FFF7DAFF6A4623001278AC3334
:1091800027619A706A4612791E70DA7022005D704B
:10919000FF23B032200013701374FEBD88F8000066
:1091A00037B5EFF3108300930123019372B63F2488
:1091B000019B013B5A1C0FD0826C5D1E402A09D0D6
:1091C000026C8154026C013222400264826C0132D2
:1091D0008264EEE72B00EDE768460193FEF739FF66
:1091E00037BD13B5EFF3108300930123019372B6DB
:1091F000019B5A1E0192002B14D0836C002B0ED0C1
:109200003F22436CC45C436C013313404364836C62
:10921000013B83646846FEF71CFF200016BD012455
:109220006442F7E76846FEF714FFF6E710B504005E
:109230000069FEF76DFA002805D02069FEF778FA7C
:109240002069FEF76AFA2069FEF752FA002818D062
:109250002069FEF76DFA010020001430FFF7A0FF2F
:109260002300B0331B78FF2B0BD04023E26D9B1AF9
:10927000092B06DC23002200B433BC321B681268C1
:109280001A602069FEF74FFA00280CD02300A8339B
:109290001B68002B13D020006030FFF7A2FFC1B283
:1092A0002069FEF749FA2069FEF727FA002805D061
:1092B0002069FEF726FA2069FEF716FA10BD20692C
:1092C000FEF746FAEFE70000F8B5040000690D006C
:1092D0002600FEF728FAA836002802D03368002BB3
:1092E00031D00F273368402B23D1EFF310830122B5
:1092F00013420FD1164B5B68DB05DB0DF2D0103B40
:109300005BB2002B0FDA3B40083B9B08114A9B00E5
:109310009B181B682069FEF706FA0028E2D020009F
:10932000FFF784FFDEE79B08C0330B4A9B009B5886
:10933000F0E7200029006030FFF732FF2069FEF7D8
:1093400003FA0120F8BD29002069FEF7F5F9F8E7D6
:1093500000ED00E01CED00E000E100E010B50400CD
:109360001430FFF73EFF2300B0331B78FF2B0AD0E9
:109370004023E26D9B1A0A2B05DD2300BC34B83371
:109380001B6822681A6010BDF7B5019218221624D6
:1093900042433F4B07009B181C570091631C6ED043
:1093A000102C6CD03B4B3C4E1D68002D27D1290062
:1093B00044223A4803F067FD29004422384803F06C
:1093C00062FD1022374B38491D60CA67C021C12099
:1093D000364B49005A5080001958FF35A94319509F
:1093E0001A60334B334A5A80022332781343337066
:1093F0007378DB09012BFBD00122264B1A60012573
:10940000A540736900212B437361380000F090FD83
:10941000009B002B31D00027224B20499C461B6823
:10942000BA00BB421DD16046013303608D501C4B16
:1094300000999950072C19DD0123083CA40007214D
:10944000A140154A9B009B189A698A439A61019A28
:10945000042A12D81000996900F07AFF0B12141632
:1094600018008858A842E1D00137D9E7A4000023AA
:10947000E5E70522A2400A439A61ADB2F560F7BD67
:109480000422F7E70322F5E70222F3E70122F1E7DE
:1094900064F30000F817002000180040B417002003
:1094A00070170020FC17002004E100E000E100E05C
:1094B000000C00400540000018234343164870B5D7
:1094C000C0181623C3565A1C0FD0102B0DD00120E4
:1094D0009840124B82B29A605A69114D82435A6188
:1094E000002229680F4C914200D170BD93001E5993
:1094F000864205D10C480139914203D82960F4E72E
:109500000132F0E7E61876680132E650C618766850
:109510001E500433F0E7C04664F30000001800401A
:10952000FC170020B417002070170020F8B50024A5
:10953000094B1B68A34200D8F8BD084E084FA50090
:109540003369EA591A4204D0064BEB589847EB5955
:1095500033610134ECE7C046FC17002000180040DE
:10956000B41700207017002010B51C00431A029891
:10957000511A001B584300F07FFF001910BD70B551
:109580000E0000254468002C0BD0236831005B6876
:1095900020009847002802DB2D18E468F3E7012536
:1095A0006D42280070BD70B50D004468002C08D0D5
:1095B000236829009B6820009847002802D1E468AE
:1095C000F4E7200070BD70B50D004468002C07D092
:1095D000236829002000DB689847E4682D18F5E728
:1095E0002C7070BD70B50D004468002C08D0236845
:1095F00029001B6820009847002802D1E468F4E79E
:10960000200070BDF8B542788B790D00017A9B1867
:10961000040000208B4222DC6368834219D165601C
:10962000002623786A71EA792B719B182370AB7935
:10963000B34213D9AB68B7006078DF19FFF794FB2A
:109640003B68013603606378F6B201336370EEE77E
:109650000B00D9680029FBD1DD60E1E70120F8BDEE
:1096600070B50126054D064C2B68334203D120000E
:10967000FFF772FB2E60200070BDC046001800206E
:1096800004180020F7B506000D000C008B1801939C
:10969000019B671B9C4207D0336821781B68300010
:1096A000984701340028F3D13800FEBD70B504009E
:1096B00008000D0004F048F92368020029005B68E7
:1096C0002000984770BD10B50B1E02D0FFF7EEFFCB
:1096D0000300180010BD10B503688A685B6809684C
:1096E000984710BD10B5FFF7EEFF10BD10B5024949
:1096F000FFF7DCFF10BDC046BCF8000070B50500E8
:10970000FFF7E9FF04002800FFF7F0FF201870BD05
:1097100070B50400FFF7D7FF05002000FFF7E6FF54
:10972000401970BD10B504000068002801D003F096
:1097300063FB200010BD10B504000068002801D0B4
:1097400003F05AFB00232360A360636010BD70B573
:1097500004000D000068013104F0A4F8031E01D0DC
:10976000012028C470BD036810B50400002B04D08C
:1097700043688B4201D3012010BD2000FFF7E7FFB3
:109780000028F9D0A368002BF5D122681370F2E706
:1097900070B50E00110004001500FFF7E4FF00286B
:1097A00004D12000FFF7C7FF200070BDA560310085
:1097B000206804F0C1F8F7E7002370B504000D003D
:1097C000036043608360994207D0080004F0BCF84E
:1097D000290002002000FFF7DBFF200070BD70B5FC
:1097E000050008000C0004F0AFF82100020028007A
:1097F000FFF7CEFF70BD10B5002304008AB02360D0
:109800006360A360080001A900F07BF9200001A9B2
:10981000FFF7E5FF20000AB010BD10B50B000400F3
:10982000884205D00968002904D09A68FFF7B0FF84
:10983000200010BDFFF77FFFFAE7002310B50400FA
:10984000036043608360FFF7E8FF200010BD10B5A0
:109850000400002903D0FFF7C2FF200010BDFFF76E
:109860006AFFFAE7002370B5040090B0036043601C
:109870008360151C0A2A00D90A25EDB2AE1C081C0B
:1098800003F08AF976B203AB009332002B0000F0AC
:1098900041F801002000FFF7DAFF200010B070BD92
:1098A000F8B504000F1E02D100263000F8BD0126D5
:1098B000002AFAD08368D5182900FFF754FF002842
:1098C000F2D02368A2683900981804F035F8A56032
:1098D000EBE710B58A6809680400FFF7E1FF00288C
:1098E00002D12000FFF727FF200010BD70B5040053
:1098F0000D1E04D12000FFF71EFF200070BD0800E0
:1099000004F022F8290002002000FFF7C9FF002818
:10991000F0D0F2E730B5040087B00D00064901A889
:1099200003F0DCFF22002B0001A90A9803F0D6FF08
:109930000A9807B030BDC046BFF80000FEE700003F
:10994000034B10B51B68002B00D0984710BDC046D4
:109950001018002070B50F490F4CA14204D100F03F
:10996000FDF800F0D3F8FEE70C4D00238D42F6D051
:10997000CA18E818A24205D3094B8242EFD0094920
:10998000002204E0006804331060F1E704C38B4256
:10999000FCD3E4E700000020340200200CFD0000AE
:1099A000340200205018002010B500F06FF8002895
:1099B00001D100F055F810BD014B18607047C0464A
:1099C00010180020014B18687047C046141800207A
:1099D000F7B51348012284461249134C8E68636818
:1099E00005689B0E1340019288686268019F920E81
:1099F0003A4067463F6893420ED1BD420CD1864241
:109A00000AD35B19FA254868AD00861B07486B43EB
:109A10007043000DC018FEBD3D0013000600E3E7D3
:109A20001418002010E000E000ED00E055550000A3
:109A300070B5041E10D0FFF7CBFF050000F025F82D
:109A4000FFF7C6FF054B401B9842F7D9FA23013CAC
:109A50009B00ED18002CF3D170BDC046E703000059
:109A600010B5034A13680133136000F0D3FA10BD38
:109A70001418002010B5002806D0302303215843C5
:109A800000F070FC0138FDD110BD70470020704718
:109A9000F0B50C008BB01600002926D0931E222BA7
:109AA0002DD80A2A05D1002803DA0127404201AD4A
:109AB0000AE00027FBE7310000F0DAFCCBB209290D
:109AC00016D830332B7001352A000028F3D101ABB2
:109AD000AB42F0D02300002F02D02D21631C217057
